:100000000C94AD000C94CA000C94CA000C94CA0065
:100010000C94CA000C94CA000C94CA000C941503EA
:100020000C94CA000C94CA000C94CA000C94CA0028
:100030000C94CA000C94CA000C94CA000C94CA0018
:100040000C94CB020C94CA000C94CA000C94CA0005
:100050000C94CA000C94CA000C94CA000C94CA00F8
:100060000C94CA000C94CA0008000000BE922449F7
:10007000123EABAAAA2ABECDCCCC4C3E00000080DA
:10008000BEABAAAAAA3E00000000BF000000803F4D
:100090000000000000084178D3BB4387D1133D190D
:1000A0000E3CC3BD4282AD2B3E68EC8276BED98F3A
:1000B000E1A93E4C80EFFFBE01C4FF7F3F0000007E
:1000C000000007634236B79BD8A71A39685618AEA6
:1000D000BAAB558C1D3CB7CC5763BD6DEDFD753E7D
:1000E000F6177231BF000000803F05A84CCDB2D496
:1000F0004EB93836A9020C50B9918688083CA6AA98
:10010000AA2ABE000000803F000000002400270053
:100110002A0000000008000201000003040700009C
:1001200000000000000001020408102040800102CD
:10013000040810200102040810200000000025001F
:1001400028002B0004040404040404040202020234
:100150000202030303030303020011241FBECFEFB7
:10016000D8E0DEBFCDBF11E0A0E0B1E0ECEFF9E1F7
:1001700002C005900D92AA31B107D9F721E0AAE19A
:10018000B1E001C01D92A934B207E1F70E947103EA
:100190000C94FC0C0C94000090E0FC01EE5EFE4F11
:1001A0002491FC01EA5DFE4F3491FC01EC5BFE4FB3
:1001B000E491EE23C9F0222339F0233001F1A8F4B1
:1001C000213019F1223029F1F0E0EE0FFF1FE65C3B
:1001D000FE4FA591B4918FB7F894EC91611126C0B0
:1001E00030953E233C938FBF08952730A9F02830E7
:1001F000C9F0243049F7809180008F7D03C0809141
:1002000080008F7780938000DFCF84B58F7784BDA7
:10021000DBCF84B58F7DFBCF8091B0008F7780934B
:10022000B000D2CF8091B0008F7DF9CF3E2BDACFD6
:10023000CF93DF9390E0FC01EA5DFE4F24918C5B4D
:100240009E4FFC0184918823D1F090E0880F991F84
:10025000FC01E85FFE4FA591B491FC01E65CFE4F06
:10026000C591D49161110EC09FB7F8948C91E22F83
:10027000E0958E238C932881E223E8839FBFDF9152
:10028000CF9108958FB7F894EC91E22BEC938FBF48
:10029000F6CFCF9380910001883021F08F3F61F13C
:1002A000CF910895E8E5F1E0C491C7FDF9CF61E091
:1002B00088E00E941801CC2309F48CC0C23009F0F8
:1002C000A1C08091B100887F82608093B10089EFE6
:1002D0008093B3008CE090E0A0E0B0E080933D011B
:1002E00090933E01A0933F01B09340018091700034
:1002F000826080937000D4CF88E080930001E8E5AD
:10030000F1E0C491CF3F61F2C13021F150F0C23031
:1003100009F43EC0C7FDC4CF61E088E00E94180127
:10032000CDCF14BC15BC84B5826084BD85B5816019
:1003300085BDECE4F1E0E491F0E0EE0FFF1FE65C38
:10034000FE4F85919491EEE2F1E0E491E0933C015F
:10035000C0E0ADCF109280001092810080918100AA
:10036000886080938100809181008160809381000A
:10037000ECE4F1E0E491F0E0EE0FFF1FE65CFE4FED
:1003800085919491EEE2F1E0E491E0933B018FCF0F
:100390001092B0001092B1008091B0008260809302
:1003A000B0008091B10081608093B100ECE4F1E095
:1003B000E491F0E0EE0FFF1FE65CFE4F8591949113
:1003C00090933A0180933901EEE2F1E0E491E093F9
:1003D00038016DCF85B5887F826085BD89EF87BD87
:1003E0008CE090E0A0E0B0E080934501909346015E
:1003F000A0934701B093480180916E008260809382
:100400006E004ECFC130F1F480918100887F816011
:10041000809381008FEC97E090938900809388000F
:100420008CE090E0A0E0B0E0809341019093420125
:10043000A0934301B093440180916F008260809348
:100440006F002ECFC23021F0C1112ACF8FECC7CF61
:100450008FEC3ECF8E50806480937C0080917A0038
:10046000806480937A0080917A0086FDFCCF809131
:1004700078009091790008953FB7F8948091340105
:1004800090913501A0913601B091370126B5A89B16
:1004900005C02F3F19F00196A11DB11D3FBFBA2F16
:1004A000A92F982F8827BC01CD01620F711D811DD6
:1004B000911D43E0660F771F881F991F4A95D1F75A
:1004C00008958F929F92AF92BF92CF92DF92EF9258
:1004D000FF924B015C010E943C026B017C010E9477
:1004E0003C026C197D098E099F09683E73408105A5
:1004F0009105A8F321E0821A9108A108B10888EEBD
:10050000C80E83E0D81EE11CF11C81149104A104E3
:10051000B10429F7FF90EF90DF90CF90BF90AF909C
:100520009F908F9008952FB7F8946091300170914B
:10053000310180913201909133012FBF0895909144
:10054000000189130BC0E8E5F1E0E4919FEF90937F
:100550000001E13049F028F0E23061F060E00C94F5
:10056000CC0010926E00FACF90916F009D7F909317
:100570006F00F4CF909170009D7F9093700091E098
:100580009093B0009091B100987F94609093B100E7
:100590001092B300E3CF1F920F920FB60F92112467
:1005A0002F933F938F939F93AF93BF93809130018D
:1005B00090913101A0913201B091330130912F011E
:1005C00026E0230F2D3758F50296A11DB11D20936B
:1005D0002F018093300190933101A0933201B093A9
:1005E00033018091340190913501A0913601B09191
:1005F00037010196A11DB11D8093340190933501FF
:10060000A0933601B0933701BF91AF919F918F9125
:100610003F912F910F900FBE0F901F90189529E8D2
:10062000230F0396A11DB11DD2CF1F920F920FB6BB
:100630000F9211242F933F934F935F936F937F9368
:100640008F939F93AF93BF93EF93FF9380913D015F
:1006500090913E01A0913F01B0914001892B8A2BDE
:100660008B2BD1F190913801E0913901F0913A0151
:1006700080818927808380913D0190913E01A091E6
:100680003F01B0914001181619061A061B069CF48A
:1006900080913D0190913E01A0913F01B0914001B8
:1006A0000197A109B10980933D0190933E01A09368
:1006B0003F01B0934001FF91EF91BF91AF919F91A6
:1006C0008F917F916F915F914F913F912F910F90FB
:1006D0000FBE0F901F901895809100010E949F02FD
:1006E000EACFCF93DF9300D000D0CDB7DEB77894B8
:1006F00084B5826084BD84B5816084BD85B5826027
:1007000085BD85B5816085BD80916E0081608093D7
:100710006E00109281008091810082608093810040
:100720008091810081608093810080918000816050
:10073000809380008091B10084608093B1008091AB
:10074000B00081608093B00080917A0084608093D3
:100750007A0080917A00826080937A0080917A009A
:100760008E7F80937A0080917A00806880937A00EF
:100770001092C10061E088E00E94180161E08DE004
:100780000E94180160E08EE00E94180135E0232EDF
:1007900031E0332EF101F081F98322E0220E311C89
:1007A00061E08F2F0E94180160E089810E94CC00D7
:1007B00039E1231631E0330669F78FE00E942A02FF
:1007C000BC01990F880B990B611571058105910585
:1007D00011F00E9428080E9493022B013C017C0129
:1007E0006B0110E000E00E9493026419750986090C
:1007F0009709683E73408105910508F08AC00E9400
:10080000930264197509860997090E94AE0920E0D0
:1008100030E04AE754E40E9406094B015C0120E005
:1008200030E040E251E40E940D0B0E9478097A8387
:100830006983C801880F991F8B5F9E4F9C838B83B0
:10084000E981FA810E171F077CF40A30110564F460
:10085000EB81FC8180813296FC83EB8361E00E9416
:10086000CC000F5F1F4FECCF20E030E040E752E4B8
:10087000C501B4010E940D0B4B015C0120E030E08A
:1008800040E05FE30E94B80A87FDADCFA501940167
:1008900060E070E08AE794E40E9406090E947F0904
:1008A0004B015C0181149104A104B10421F4812C59
:1008B000912C540183940E949302A5019401220F6C
:1008C000331F441F551FDC01CB01820F931FA41F50
:1008D000B51F8C159D05AE05BF0540F40E9493021F
:1008E00075016401C60ED71EE81EF91E0E94930210
:1008F0006C157D058E059F0508F475CF0E94490192
:100900000E94930275016401C60ED71EE81EF91EEF
:100910006ACF25E031E03A832983E981FA81808139
:100920003296FA83E98361E00E94CC0029813A8102
:100930002216330691F70E9493022B013C017C01A1
:100940006B010AE010E00E949302641975098609A0
:100950009709683E73408105910508F090C00E9498
:10096000930264197509860997090E94AE0920E06F
:1009700030E04AE754E40E9406099B01AC0160E0C4
:1009800070E080E89FE30E9494084B015C0120E046
:1009900030E040E251E40E940D0B0E9478091B01F7
:1009A000A801440F551F4B5F5E4F5C834B8320169D
:1009B000310684F48B819C8102979C838B83101673
:1009C000110644F40150110960E0FC0180810E948D
:1009D000CC00EDCF20E030E040E752E4C501B401A7
:1009E0000E940D0B4B015C0120E030E040E05FE332
:1009F0000E94B80A87FDA7CFA501940160E070E0CE
:100A00008AE794E40E9406090E947F094B015C0179
:100A100081149104A104B10421F4812C912C54017E
:100A200083940E949302A5019401220F331F441F57
:100A3000551FDC01CB01820F931FA41FB51F8C151E
:100A40009D05AE05BF0540F40E9493027501640147
:100A5000C60ED71EE81EF91E0E9493026C157D0576
:100A60008E059F0508F46FCF0E9449010E949302F2
:100A700075016401C60ED71EE81EF91E64CF25E07D
:100A800031E03C832B83EB81FC8180813296FC83B7
:100A9000EB8360E00E94CC002B813C8149815A812C
:100AA0002417350781F788E00E949F0268EC70E008
:100AB00080E090E00E94610285E091E09C838B835E
:100AC000EB81FC8180813296FC83EB8361E00E94A4
:100AD000CC002B813C8149815A812417350781F74D
:100AE00060E971E080E090E00E94610285E091E0C1
:100AF0009C838B83EB81FC8180813296FC83EB832A
:100B000060E00E94CC002B813C8149815A812417EE
:100B1000350781F7332433940E9493026B017C01E3
:100B20008EE00E942A028C01BC01990F880B990B60
:100B30000E94B00920E030EC4FE754E40E9406091F
:100B40009B01AC0160E070E088E493E40E947A0BC2
:100B500020E030E040E05FE30E940D0B4B015C01C0
:100B6000C701B60120EA3BEB4DE050E00E9463086C
:100B70000E94AE0920E03AEB4BE559E40E940609D9
:100B80002BED3FE049EC50E40E940D0B0E94CA0B94
:100B90002DEC3CEC4CEC5DE30E940D0B20E030E0D2
:100BA00040E85FE30E949508A50194010E940D0BA7
:100BB0002B013C0120E030E040E05FE30E940109AE
:100BC00087FF05C0412C512C612C9FE3792E20E03A
:100BD00030E048EC52E4C501B4010E94B80A87FF36
:100BE0001CC120E030E040E751E4C501B4010E949F
:100BF000B80A87FD09C120E030E040E751E4C501B3
:100C0000B4010E94940820E030E04AEA52E40E94D5
:100C100006099B01AC010E94950820E030E040EEFF
:100C200050E40E9495080E94EB090E947809262F43
:100C30002B837C838B819C81099724F0E8E0F0E092
:100C4000FC83EB832B813C8137FF02C01C821B821B
:100C500080912E01882309F4E5C00E3D134014F461
:100C600010922E0180912E01882309F4E2C0809118
:100C70002A0190912B01A0912C01B0912D01A70187
:100C80009601281B390B4A0B5B0BDA01C9018C3228
:100C90009140A105B10568F080912901C0922A0117
:100CA000D0922B01E0922C01F0922D0183258093AC
:100CB000290145E051E05C834B83EB81FC8180811D
:100CC0003296FC83EB83609129010E94CC002B813A
:100CD0003C8149815A812417350779F7A301920194
:100CE00060E070E88BE395E40E9406090E947F09AA
:100CF000DC01CB018C0D9D1DAE1DBF1D00911F01A0
:100D0000109120012091210130912201801791073B
:100D1000A207B30740F480931F0190932001A09392
:100D20002101B093220180911F0190912001A09197
:100D30002101B0912201C816D906EA06FB0608F483
:100D400044C00E94D9072FE332E44FE050E00E94F4
:100D500031086F5F7F4F8F4F9F4F0E94B00920E097
:100D600034E244E759E40E9406090E94C50A9058FB
:100D7000A30192010E94060920E030E04AE754E412
:100D80000E940D0B0E947F096C0D7D1D8E1D9F1D05
:100D900060931F01709320018093210190932201A1
:100DA0000E94490161E08DE00E94CC0030921E015A
:100DB000D701C6010896A11DB11D80931A01909319
:100DC0001B01A0931C01B0931D0180911E0188237B
:100DD00099F080911A0190911B01A0911C01B09192
:100DE0001D01C816D906EA06FB0630F060E08DE06A
:100DF0000E94CC0010921E0140E050E0452B09F407
:100E00008BCE0E94000086CE2FEE3EEE4EEE5EE3CD
:100E1000C501B4010E940D0B06CF49E050E05C8390
:100E20004B8316CF073F13400CF41CCF30922E019A
:100E300019CF8091250190912601A0912701B091B1
:100E40002801A7019601281B390B4A0B5B0BDA011D
:100E5000C90180359105A105B10590F0C092250129
:100E6000D0922601E0922701F09228014B815C810B
:100E7000452BC1F570E060E070932401609323017D
:100E80008091230190912401EB81FC81E80FF91FEF
:100E9000FC83EB83399724F028E030E03C832B83FC
:100EA0004B815C8157FF04C08FEF9FEF9C838B8346
:100EB00085E0A82E81E0B82E10E000E0F5018081E9
:100EC000F2E0AF0EB11C61E02B813C8120173107AD
:100ED0000CF460E00E94CC000F5F1F4F0A30110538
:100EE00069F7FCCE0E94D90728EE33E040E050E0DD
:100EF0000E94310868357240810591050CF0BACF27
:100F00000E94D90723E030E040E050E00E94310821
:100F10006150710981099109AFCF8F929F92AF9271
:100F2000BF92CF92DF92EF92FF92CF93DF93EC01CB
:100F3000688179818A819B8161157105810591059F
:100F400021F464E279ED8BE597E02DE133EF41E0A8
:100F500050E00E94310849015A019B01AC01A7EA07
:100F6000B1E40E9450086B017C01ACEEB4EFA50126
:100F700094010E945E08C60ED71EE81EF91EF7FEF9
:100F800006C081E0C81AD108E10880E8F80AC882E2
:100F9000D982EA82FB82C701B6019F77DF91CF91A8
:100FA000FF90EF90DF90CF90BF90AF909F908F9089
:100FB00008958F929F92AF92BF92CF92DF92EF925D
:100FC000FF92609101017091020180910301909163
:100FD0000401611571058105910521F464E279ED43
:100FE0008BE597E02DE133EF41E050E00E943108BE
:100FF00049015A019B01AC01A7EAB1E40E945008E3
:101000006B017C01ACEEB4EFA50194010E945E0877
:10101000C60ED71EE81EF91EF7FE06C081E0C81AEC
:10102000D108E10880E8F80AC0920101D0920201DB
:10103000E0920301F0920401C701B6019F77FF908F
:10104000EF90DF90CF90BF90AF909F908F900895DA
:101050006093010170930201809303019093040156
:101060000895052E97FB1EF400940E94480857FD32
:1010700007D00E94630807FC03D04EF40C94480884
:1010800050954095309521953F4F4F4F5F4F0895B4
:1010900090958095709561957F4F8F4F9F4F0895E4
:1010A0000E948508A59F900DB49F900DA49F800D70
:1010B000911D11240895B7FF0C9450080E94500808
:1010C000821B930B0895A1E21A2EAA1BBB1BFD01E4
:1010D0000DC0AA1FBB1FEE1FFF1FA217B307E40717
:1010E000F50720F0A21BB30BE40BF50B661F771F6F
:1010F000881F991F1A9469F760957095809590954F
:101100009B01AC01BD01CF010895A29FB001B39F27
:10111000C001A39F700D811D1124911DB29F700D00
:10112000811D1124911D08955058BB27AA270E94A4
:10113000AC080C94660A0E94580A38F00E945F0AB4
:1011400020F039F49F3F19F426F40C94550A0EF45C
:10115000E095E7FB0C94260AE92F0E94770A58F3E2
:10116000BA17620773078407950720F079F4A6F58C
:101170000C94B10A0EF4E0950B2EBA2FA02D0B01A2
:10118000B90190010C01CA01A0011124FF27591BCC
:1011900099F0593F50F4503E68F11A16F040A22FD2
:1011A000232F342F4427585FF3CF46953795279543
:1011B000A795F0405395C9F77EF41F16BA0B620B42
:1011C000730B840BBAF09150A1F0FF0FBB1F661F89
:1011D000771F881FC2F70EC0BA0F621F731F841FCC
:1011E00048F4879577956795B795F7959E3F08F0F2
:1011F000B0CF9395880F08F09927EE0F97958795B4
:1012000008950E94020A08F481E008950E941A09D4
:101210000C94660A0E945F0A58F00E94580A40F037
:1012200029F45F3F29F00C94260A51110C94B20A5C
:101230000C94550A0E94770A68F39923B1F3552359
:1012400091F3951B550BBB27AA27621773078407D9
:1012500038F09F5F5F4F220F331F441FAA1FA9F36F
:1012600035D00E2E3AF0E0E832D091505040E6955D
:10127000001CCAF72BD0FE2F29D0660F771F881FBE
:10128000BB1F261737074807AB07B0E809F0BB0BB1
:10129000802DBF01FF2793585F4F3AF09E3F5105C5
:1012A00078F00C94260A0C94B20A5F3FE4F3983E5F
:1012B000D4F3869577956795B795F7959F5FC9F7AE
:1012C000880F911D9695879597F90895E1E0660F2F
:1012D000771F881FBB1F621773078407BA0720F0A8
:1012E000621B730B840BBA0BEE1F88F7E095089511
:1012F0000E947F096894B1110C94B20A08950E946B
:101300007F0A88F09F5798F0B92F9927B751B0F00E
:10131000E1F0660F771F881F991F1AF0BA95C9F779
:1013200014C0B13091F00E94B10AB1E008950C945C
:10133000B10A672F782F8827B85F39F0B93FCCF30F
:10134000869577956795B395D9F73EF490958095F6
:10135000709561957F4F8F4F9F4F0895E89409C016
:1013600097FB3EF490958095709561957F4F8F4FD8
:101370009F4F9923A9F0F92F96E9BB279395F695EE
:10138000879577956795B795F111F8CFFAF4BB0F6C
:1013900011F460FF1BC06F5F7F4F8F4F9F4F16C0D0
:1013A000882311F096E911C0772321F09EE8872F5A
:1013B000762F05C0662371F096E8862F70E060E016
:1013C0002AF09A95660F771F881FDAF7880F96958F
:1013D000879597F908950E94990A90F09F3748F4ED
:1013E000911116F00C94B20A60E070E080E89FEB77
:1013F000089526F41B16611D711D811D0C942C0A85
:101400000C94470A990F0008550FAA0BE0E8FEEF6D
:1014100016161706E807F907C0F012161306E407B8
:10142000F50798F0621B730B840B950B39F40A26B1
:1014300061F0232B242B252B21F408950A2609F48F
:10144000A140A6958FEF811D811D089597F99F6793
:1014500080E870E060E00895882371F4772321F03C
:101460009850872B762F07C0662311F499270DC05B
:101470009051862B70E060E02AF09A95660F771FF6
:10148000881FDAF7880F9695879597F908959F3FFB
:1014900031F0915020F4879577956795B795880F2F
:1014A000911D9695879597F908959FEF80EC089583
:1014B00000240A9416161706180609060895002433
:1014C0000A9412161306140605060895092E0394AD
:1014D000000C11F4882352F0BB0F40F4BF2B11F421
:1014E00060FF04C06F5F7F4F8F4F9F4F089557FD80
:1014F0009058440F551F59F05F3F71F04795880F82
:1015000097FB991F61F09F3F79F087950895121618
:1015100013061406551FF2CF4695F1DF08C01616C4
:1015200017061806991FF1CF869571056105089475
:1015300008950E947F0AA0F0BEE7B91788F4BB2780
:101540009F3860F41616B11D672F782F8827985F93
:10155000F7CF869577956795B11D93959639C8F322
:101560000895E894BB2766277727CB0197F908955C
:101570000E94020A08F48FEF089516F00C94470AAF
:101580000C94550A68940C94260A0E947F0AA8F3CA
:101590009923C1F3AEF3DF93CF931F930F93FF9281
:1015A000C92FDD2788232AF02197660F771F881F10
:1015B000DAF720E030E040E85FEB9FE3883920F085
:1015C000803E38F021968F770E949508E8E6F0E09B
:1015D00004C00E949508E5E9F0E00E940C0C8B0124
:1015E000BE01EC01FB2E6F5771097595771F880BB3
:1015F000990B0E94B00928E132E741E35FE30E94C2
:10160000200BAF2D9801AE01FF900F911F91CF914C
:10161000DF910E94AC080C94660A0E94200B0C9487
:10162000660A0E94580A38F00E945F0A20F095234B
:1016300011F00C94260A0C94550A11240C94B20A49
:101640000E94770A70F3959FC1F3950F50E0551FE4
:10165000629FF001729FBB27F00DB11D639FAA2707
:10166000F00DB11DAA1F649F6627B00DA11D661F56
:10167000829F2227B00DA11D621F739FB00DA11D77
:10168000621F839FA00D611D221F749F3327A00D31
:10169000611D231F849F600D211D822F762F6A2FCD
:1016A00011249F5750409AF0F1F088234AF0EE0F32
:1016B000FF1FBB1F661F771F881F91505040A9F75F
:1016C0009E3F510580F00C94260A0C94B20A5F3FAD
:1016D000E4F3983ED4F3869577956795B795F7959B
:1016E000E7959F5FC1F7FE2B880F911D9695879513
:1016F00097F90895FA01EE0FFF1F30962105310585
:10170000A1F16115710561F48038BFE39B0749F1D0
:1017100068949038810561F08038BFEF9B0741F0F5
:1017200099234AF5FF3FE1053105210519F1E894B8
:101730000894E795D901AA2329F4AB2FBE2FF85FAF
:10174000D0F310C0FF5F70F4A695E0F7F73950F0C2
:1017500019F0FF3A38F49F779F930DD00F9007FC54
:101760009058089546F00C94550A60E070E080E8C7
:101770009FE308954FE79F775F934F933F932F9396
:101780000E94C50A2F913F914F915F910E940D0BCE
:101790000C94DA0B9F930E94350C0F9007FCEE5FC0
:1017A0000C945E0C29F416F00C94260A0C94B10AE1
:1017B0000C94550A0E947F0AA8F39638A0F707F800
:1017C0000F92E8942BE33AEA48EB5FE70E94230B81
:1017D0000F920F920F924DB75EB70F920E94B40C0A
:1017E000E2ECF0E00E940C0C4F915F91EF91FF91C1
:1017F000E595EE1FFF1F49F0FE57E0684427EE0F06
:10180000441FFA95E1F74195550B0E947E0C0F900D
:1018100007FE0C94720C0895DF93CF931F930F93E0
:10182000FF92EF92DF927B018C01689406C0DA2E62
:10183000EF010E94200BFE01E894A59125913591BE
:1018400045915591A6F3EF010E94AC08FE01970166
:10185000A801DA9469F7DF90EF90FF900F911F9144
:10186000CF91DF9108950C94550A0E947F0AD8F316
:10187000E894E0E0BB279F57F0F02AED3FE049EC09
:1018800006C0EE0FBB0F661F771F881F28F0B23A05
:1018900062077307840728F0B25A620B730B840B3C
:1018A000E3959A9572F7803830F49A95BB0F661FCE
:1018B000771F881FD2F790480C94490AEF93E0FFF6
:1018C00007C0A2EA2AED3FE049EC5FEB0E94AC08BA
:1018D0000E94660A0F90039401FC9058EAEEF0E033
:1018E0000C94E80C9B01AC0160E070E080E89FE3A1
:1018F0000C9406090C94260A0C94470A0E947F0A4D
:10190000D8F39923C9F3940F511DA3F3915050407C
:1019100094F059F0882332F0660F771F881F91509A
:101920005040C1F79E3F51052CF7880F911D9695A9
:10193000879597F908955F3FACF0983E9CF0BB27E0
:10194000869577956795B79508F4B1609395C1F73B
:10195000BB0F58F711F460FFE8CF6F5F7F4F8F4FD9
:101960009F4FE3CF0C94B20AFA01DC01AA0FBB1F10
:101970009B01AC01BF5728F4222733274427507816
:1019800020C0B75190F4AB2F00244695379527958A
:10199000011CA395D2F3002071F0220F331F441FC6
:1019A000B395DAF30ED00C94940861307105A0E879
:1019B0008A07B94630F49B01AC0166277727882750
:1019C0009078309621F020833183428353830895A9
:1019D0009F938F937F936F93FF93EF939B01AC0142
:1019E0000E940D0BEF91FF910E940C0C2F913F91E3
:0C19F0004F915F910C940D0BF894FFCF09
:1019FC00FF010000000200030004000500060007C0
:0A1A0C000009000A000B000C0000A6
:00000001FF
